{
  "_format": "hh-sol-artifact-1",
  "contractName": "ProtocolGovernance",
  "sourceName": "contracts/dill/gauge-proxy.sol",
  "abi": [
    {
      "inputs": [],
      "name": "acceptGovernance",
      "outputs": [],
      "stateMutability": "nonpayable",
      "type": "function"
    },
    {
      "inputs": [],
      "name": "governance",
      "outputs": [
        {
          "internalType": "address",
          "name": "",
          "type": "address"
        }
      ],
      "stateMutability": "view",
      "type": "function"
    },
    {
      "inputs": [],
      "name": "pendingGovernance",
      "outputs": [
        {
          "internalType": "address",
          "name": "",
          "type": "address"
        }
      ],
      "stateMutability": "view",
      "type": "function"
    },
    {
      "inputs": [
        {
          "internalType": "address",
          "name": "_governance",
          "type": "address"
        }
      ],
      "name": "setGovernance",
      "outputs": [],
      "stateMutability": "nonpayable",
      "type": "function"
    }
  ],
  "bytecode": "0x608060405234801561001057600080fd5b506103b3806100206000396000f3fe608060405234801561001057600080fd5b506004361061004c5760003560e01c8063238efcbc146100515780635aa6e6751461005b578063ab033ea91461008f578063f39c38a0146100d3575b600080fd5b610059610107565b005b61006361022e565b604051808273ffffffffffffffffffffffffffffffffffffffff16815260200191505060405180910390f35b6100d1600480360360208110156100a557600080fd5b81019080803573ffffffffffffffffffffffffffffffffffffffff169060200190929190505050610252565b005b6100db610357565b604051808273ffffffffffffffffffffffffffffffffffffffff16815260200191505060405180910390f35b600160009054906101000a900473ffffffffffffffffffffffffffffffffffffffff1673ffffffffffffffffffffffffffffffffffffffff163373ffffffffffffffffffffffffffffffffffffffff16146101ca576040517f08c379a000000000000000000000000000000000000000000000000000000000815260040180806020018281038252601d8152602001807f616363657074476f7665726e616e63653a202170656e64696e67476f7600000081525060200191505060405180910390fd5b600160009054906101000a900473ffffffffffffffffffffffffffffffffffffffff166000806101000a81548173ffffffffffffffffffffffffffffffffffffffff021916908373ffffffffffffffffffffffffffffffffffffffff160217905550565b60008054906101000a900473ffffffffffffffffffffffffffffffffffffffff1681565b60008054906101000a900473ffffffffffffffffffffffffffffffffffffffff1673ffffffffffffffffffffffffffffffffffffffff163373ffffffffffffffffffffffffffffffffffffffff1614610313576040517f08c379a00000000000000000000000000000000000000000000000000000000081526004018080602001828103825260138152602001807f736574476f7665726e616e63653a2021676f760000000000000000000000000081525060200191505060405180910390fd5b80600160006101000a81548173ffffffffffffffffffffffffffffffffffffffff021916908373ffffffffffffffffffffffffffffffffffffffff16021790555050565b600160009054906101000a900473ffffffffffffffffffffffffffffffffffffffff168156fea264697066735822122077c23f4dffaf11fdf75e5ab727bc399fcb2e4091b4d62568cc4a67d7683133ad64736f6c634300060c0033",
  "linkReferences": {},
  "deployedLinkReferences": {}
}